:10000000F9EF00F0486F6C61204F726C616E646FA5
:1000100000004675676120706F7220756E6F737493
:1000200061636F730000EA6A0C0EE96EEF500EE038
:10003000010E016E006A002EFED7012EFBD74A0E7C
:10004000006E002EFED700D0EF2EF2D7120011382E
:10005000F00B006E0F0E8C1400108C6E00008C8064
:1000600000D08C9012008350006E00380F0B016E90
:1000700012000F0E9514F009956E8C8400008C8090
:100080000000F1DF01C011F08C9000008C800000B6
:10009000EADF01C010F08C900F0E9514956E1138A8
:1000A000006EF00E001600501010016E5DEF00F0B3
:1000B0009590959295948C92DCD701C010F001BE7A
:1000C000FBD78C920EB08C8200008C9400008C9038
:1000D0000F38106E0F0E101610C011F0B8DF0F5051
:1000E0000F0B106E116EB3DF1200280E086E0C0E8F
:1000F000096E010E0A6E060E0B6E8C908C928C941B
:100100000F0E9514956E9590959295940F0E0C6E1A
:100110008ADF010E076E0750030808E3030E116E15
:1001200096DF050E0C6E7FDF072AF5D7020E116EE3
:100130008EDF050E0C6E77DF076A075003080DE3AC
:10014000036A0750080FE96E000E0320EA6EEFCF36
:100150000FF00E6AADDF072AF0D704EF01F00B2C89
:1001600001D003D0400E0C6E01D00C6A010E0A5C67
:100170000C260C5080090D6E0E6A0F6E99DF12006E
:100180000950070A07E00B0A0AE0060A10E0020A13
:1001900014E018D0010E0A6E0B6EE1DF18D00E6A63
:1001A000010E0F6E85DF020E0C6E3DDF10D0010ECA
:1001B0000A6E020E0B6ED3DF0AD00E6A100E0F6E9F
:1001C00077DF05D0010E0E6E09C00FF071DFF3EF7F
:1001D00000F00900F5520CE0F6CF07F0F7CF08F079
:1001E000F5CF09F0CDD707C0F6FF08C0F7FFF1D76C
:1001F0001200F86AD09E056A046AC150C00B0F094C
:10020000C16E070EB46E71D7010E0A6E0B6EA7DFBA
:10021000040EF66E000EF76EDCDF010E0A6E020EA3
:100220000B6E9DDF120EF66E000EF76ED2DFECD76E
:020230000300C9
:020000040030CA
:0E0000003FCC201E0087A1000FC00FE00F4074
:00000001FF
;PIC18F4550
;CRC=D9E7  CREATED="14-may.-21 20:34"
